{
  "contractName": "Textbook",
  "abi": [
    {
      "constant": true,
      "inputs": [
        {
          "name": "isbn",
          "type": "string"
        }
      ],
      "name": "bookExists",
      "outputs": [
        {
          "name": "",
          "type": "bool"
        }
      ],
      "payable": false,
      "stateMutability": "view",
      "type": "function"
    },
    {
      "constant": true,
      "inputs": [
        {
          "name": "isbn",
          "type": "string"
        }
      ],
      "name": "hashFor",
      "outputs": [
        {
          "name": "",
          "type": "bytes32"
        }
      ],
      "payable": false,
      "stateMutability": "view",
      "type": "function"
    },
    {
      "constant": false,
      "inputs": [
        {
          "name": "isbn",
          "type": "string"
        }
      ],
      "name": "notarize",
      "outputs": [],
      "payable": false,
      "stateMutability": "nonpayable",
      "type": "function"
    },
    {
      "constant": true,
      "inputs": [
        {
          "name": "book",
          "type": "string"
        }
      ],
      "name": "isOwner",
      "outputs": [
        {
          "name": "",
          "type": "bool"
        }
      ],
      "payable": false,
      "stateMutability": "view",
      "type": "function"
    },
    {
      "constant": false,
      "inputs": [
        {
          "name": "isbn",
          "type": "string"
        },
        {
          "name": "self",
          "type": "address"
        }
      ],
      "name": "addBook",
      "outputs": [],
      "payable": false,
      "stateMutability": "nonpayable",
      "type": "function"
    }
  ],
  "bytecode": "0x6060604052341561000f57600080fd5b6107f38061001e6000396000f30060606040526004361061006d576000357c0100000000000000000000000000000000000000000000000000000000900463ffffffff168063142d2f6e146100725780631c261d9c146100e75780637183616c14610160578063b85e943d146101bd578063d22591c814610232575b600080fd5b341561007d57600080fd5b6100cd600480803590602001908201803590602001908080601f016020809104026020016040519081016040528093929190818152602001838380828437820191505050505050919050506102ae565b604051808215151515815260200191505060405180910390f35b34156100f257600080fd5b610142600480803590602001908201803590602001908080601f01602080910402602001604051908101604052809392919081815260200183838082843782019150505050505091905050610325565b60405180826000191660001916815260200191505060405180910390f35b341561016b57600080fd5b6101bb600480803590602001908201803590602001908080601f016020809104026020016040519081016040528093929190818152602001838380828437820191505050505050919050506103ba565b005b34156101c857600080fd5b610218600480803590602001908201803590602001908080601f01602080910402602001604051908101604052809392919081815260200183838082843782019150505050505091905050610403565b604051808215151515815260200191505060405180910390f35b341561023d57600080fd5b6102ac600480803590602001908201803590602001908080601f0160208091040260200160405190810160405280939291908181526020018383808284378201915050505050509190803573ffffffffffffffffffffffffffffffffffffffff169060200190919050506104c9565b005b6000806102ba83610325565b905060026000826000191660001916815260200190815260200160002060009054906101000a900460ff161561031a5760026000826000191660001916815260200190815260200160002060009054906101000a900460ff16915061031f565b600091505b50919050565b60006002826000604051602001526040518082805190602001908083835b6020831015156103685780518252602082019150602081019050602083039250610343565b6001836020036101000a03801982511681845116808217855250505050505090500191505060206040518083038160008661646e5a03f115156103aa57600080fd5b5050604051805190509050919050565b6103c481336104c9565b6001600260006103d384610325565b6000191660001916815260200190815260200160002060006101000a81548160ff02191690831515021790555050565b60003373ffffffffffffffffffffffffffffffffffffffff166001836040518082805190602001908083835b602083101515610454578051825260208201915060208101905060208303925061042f565b6001836020036101000a038019825116818451168082178552505050505050905001915050908152602001604051809103902060010160009054906101000a900473ffffffffffffffffffffffffffffffffffffffff1673ffffffffffffffffffffffffffffffffffffffff16149050919050565b6104d16106d8565b60408051908101604052808481526020018373ffffffffffffffffffffffffffffffffffffffff168152509050806001846040518082805190602001908083835b6020831015156105375780518252602082019150602081019050602083039250610512565b6001836020036101000a0380198251168184511680821785525050505050509050019150509081526020016040518091039020600082015181600001908051906020019061058692919061070e565b5060208201518160010160006101000a81548173ffffffffffffffffffffffffffffffffffffffff021916908373ffffffffffffffffffffffffffffffffffffffff1602179055509050506001600360008473ffffffffffffffffffffffffffffffffffffffff1673ffffffffffffffffffffffffffffffffffffffff16815260200190815260200160002060006101000a81548160ff021916908315150217905550816004846040518082805190602001908083835b602083101515610662578051825260208201915060208101905060208303925061063d565b6001836020036101000a038019825116818451168082178552505050505050905001915050908152602001604051809103902060006101000a81548173ffffffffffffffffffffffffffffffffffffffff021916908373ffffffffffffffffffffffffffffffffffffffff160217905550505050565b60408051908101604052806106eb61078e565b8152602001600073ffffffffffffffffffffffffffffffffffffffff1681525090565b828054600181600116156101000203166002900490600052602060002090601f016020900481019282601f1061074f57805160ff191683800117855561077d565b8280016001018555821561077d579182015b8281111561077c578251825591602001919060010190610761565b5b50905061078a91906107a2565b5090565b602060405190810160405280600081525090565b6107c491905b808211156107c05760008160009055506001016107a8565b5090565b905600a165627a7a72305820788a48d88982852f91dca6987558895da92674c4e5e089f7c5620442a0a7df1f0029",
  "source": "pragma solidity ^0.4.0;\n\ncontract Textbook {\n    \n    struct Book {\n        string isbn;\n        address owner;\n    }\n    \n    mapping (string => uint) private balance;\n    mapping (string => Book) private books;\n    mapping (bytes32 => bool) private books_proof;\n    mapping (address => bool) private students;\n    mapping (string => address) private owners;\n    mapping (string => address) private holders;\n    \n    // store a proof of existence in the contract state\n    function addBook(string isbn, address self) {\n        var book = Book(isbn, self);\n        books[isbn] = book;\n        students[self] = true;\n        owners[isbn] = self;\n    }\n    \n    // calculate and store the proof for a document\n    function notarize(string isbn) {\n        addBook(isbn, msg.sender);\n        books_proof[hashFor(isbn)] = true;\n    }\n    \n    // helper function to get a document's sha256\n    function hashFor(string isbn) constant returns (bytes32) {\n        return sha256(isbn);\n    }\n    \n    // check if a document has been notarized\n    function isOwner(string book) constant returns (bool) {\n        return books[book].owner == msg.sender;\n    }\n\n    function bookExists(string isbn) constant returns (bool) {\n        bytes32 hash = hashFor(isbn);\n        if (books_proof[hash]) {\n            return books_proof[hash];\n        }\n        return false;\n    }\n\n    /*function transfer(address _to, uint256 _value) {\n        require(balance[msg.sender] >= _value);           // Check if the sender has enough\n        require(balance[_to] + _value >= balance[_to]); // Check for overflows\n        balance[msg.sender] -= _value;                    // Subtract from the sender\n        balance[_to] += _value;                           // Add the same to the recipient\n    }*/\n}\n",
  "sourcePath": "/home/evan/bookchain/contracts/Textbook.sol",
  "compiler": {
    "name": "solc",
    "version": "0.4.18+commit.9cf6e910.Emscripten.clang"
  },
  "schemaVersion": "1.0.1",
  "updatedAt": "2017-11-11T11:46:45.437Z"
}